:020000040800F2
:10000000581C0020D9050008C1020008C3020008DE
:10001000CF020008DB020008E70200080000000031
:10002000000000000000000000000000F3020008D3
:10003000F502000800000000EF050008F7020008C4
:10004000F3050008F3050008F3050008FB020008AB
:10005000F3050008F3050008F9020008F30500089D
:10006000F3050008F3050008F3050008F305000890
:10007000F3050008FD0200087B330008F3050008C3
:10008000F305000891330008F3050008F3050008A4
:10009000F3050008F3050008F3050008F305000860
:1000A000F3050008F3050008F3050008F305000850
:1000B000F3050008F3050008F3050008F305000840
:1000C000F3050008F3050008F3050008F305000830
:1000D000F3050008A733000811550008F3050008D0
:1000E000F3050008F3050008F3050008F305000810
:1000F000F3050008F3050008F3050008F305000800
:10010000F3050008F3050008F3050008F3050008EF
:10011000F3050008F30500085D250008892500089F
:10012000F3050008F3050008F3050008F3050008CF
:1001300000F002F800F0B4F80AA090E8000C824445
:100140008344AAF10107DA4501D100F0A9F8AFF222
:10015000090EBAE80F0013F0010F18BFFB1A43F0A5
:100160000103184730A6000050A600000A444FF0D3
:10017000000C10F8013B13F0070408BF10F8014B06
:100180001D1108BF10F8015B641E05D010F8016B4B
:10019000641E01F8016BF9D113F0080F1EBF10F8AF
:1001A000014BAD1C0C1B09D16D1E58BF01F801CBD2
:1001B000FAD505E014F8016B01F8016B6D1EF9D555
:1001C0009142D6D37047000000230024002500266A
:1001D000103A28BF78C1FBD8520728BF30C148BFAA
:1001E0000B6070476E2906F0C286702906F04883BE
:1001F000662909F03D84652909F03A84672909F0E8
:1002000037846129AFF3008003681B0A28BF41F0DF
:100210008001692906F0B682642906F0B382752947
:1002200006F0B0826F2907F0C381782906F01483A5
:10023000E92907F05B81E42907F05881F52907F0E7
:100240005581EF2907F0C081F82906F01383036870
:10025000DB0928BF41F08001632907F0DC807329A6
:1002600007F0E180E32907F00F83F32907F01483F7
:10027000002070471FB59DE8030006F0C9FD06F099
:10028000A7FD04000020002108F022FE401C606051
:100290000020002108F032FEE0601FBD10B510BD47
:1002A00007F007FC1146FFF7E5FF03F006FC07F037
:1002B00077FE03B4FFF7F2FF03BC07F0A5FE0000D2
:1002C000704710A11E4803F01DF800BFFEE71DA1F6
:1002D0001B4803F017F800BFFEE729A1184803F0F8
:1002E00011F800BFFEE735A1154803F00BF800BF79
:1002F000FEE77047704770477047704710B503F0CE
:10030000A2F810BD0D0A2A2A2A2A2A2A2A2A2A2ACB
:100310002A2A2A2A2A2A2A2A2A48617264466175C8
:100320006C745F48616E646C65722A2A2A2A2A2AD4
:100330002A2A2A2A2A2A2A2A2A2A2A2A2A0D0A0084
:10034000003801400D0A2A2A2A2A2A2A2A2A2A2A79
:100350002A2A2A2A2A2A2A2A2A4D656D4D616E6187
:1003600067655F48616E646C65722A2A2A2A2A2AA8
:100370002A2A2A2A2A2A2A2A2A2A2A2A2A0D0A0044
:100380000D0A2A2A2A2A2A2A2A2A2A2A2A2A2A2A0A
:100390002A2A2A2A2A4275734661756C745F48615D
:1003A0006E646C65722A2A2A2A2A2A2A2A2A2A2A6A
:1003B0002A2A2A2A2A2A2A2A0D0A00000D0A2A2A6B
:1003C0002A2A2A2A2A2A2A2A2A2A2A2A2A2A2A2A8D
:1003D0002A55736167654661756C745F48616E6428
:1003E0006C65722A2A2A2A2A2A2A2A2A2A2A2A2AA8
:1003F0002A2A2A2A2A2A0D0A000000000CB5002009
:10040000019000906B48006840F4803069490860B2
:1004100000BF6848006800F4003000900198401C5C
:100420000190009818B90198B0F5A06FF1D161481A
:10043000006810F4003F02D00120009001E000208D
:1004400000900098012842D15B48006840F01000FD
:10045000594908600846006820F003000860084613
:10046000006840F002000860524840685149486006
:100470000846406848600846406840F4806048602C
:100480000846406820F47C1048600846406840F404
:10049000881048600846006840F08070086000BF1F
:1004A0004448006810F0007FFAD04248406820F0CD
:1004B0000300404948600846406840F00200486038
:1004C00000BF3C48406800F00C000828F9D10CBD82
:1004D00010B5FFF793FF10BD10B53648006840F027
:1004E00001003449086008464068344908403149F1
:1004F000486008460068324908402E4908600846AE
:10050000006820F4802008600846406820F4FE005F
:1005100048604FF41F008860FFF7DAFF4FF000607B
:100520002849086010BD10B5002100200022214B91
:100530005B6803F00C0121B1042906D0082928D1F9
:1005400007E0214B214C236027E01F4B1F4C236009
:1005500023E0184B5B6803F47010164B5B6803F4E0
:100560008032022303EB904022B9194B4343174CCE
:1005700023600DE00F4B5B6813F4003F04D0144B75
:100580004343124C236003E00F4B43430F4C236063
:1005900003E00D4B0D4C236000BF00BF054B5B68B3
:1005A000C3F303130B4CE15C084B1B68CB40074CB7
:1005B000236010BD00100240002002400000FFF840
:1005C000FFFFF6FE08ED00E000127A0000000020B8
:1005D00000093D0004000020094880470948004701
:1005E000FEE7FEE7FEE7FEE7FEE7FEE7FEE7FEE7E3
:1005F000FEE7FEE704480549054A064B7047000040
:10060000D90400083101000858080020581C0020B7
:10061000581800205818002031490143314A116010
:10062000704770B5002100230F22C4780CB32D4C05
:10063000246804F4E064C4F5E064210AC1F1040311
:10064000CA40447804FA03F1847814402143090134
:10065000254C0678A155047804F01F050124AC4010
:1006600005786D114FF0E02606EB8505C5F80041D1
:1006700009E0047804F01F050124AC401B4D067806
:10068000761145F8264070BD194A0A400243154BC1
:100690001B1F1A60704739B1124A121D12680243BB
:1006A000104B1B1D1A6006E00E4A121D1268824391
:1006B0000C4B1B1D1A607047042808D14FF0E02135
:1006C000096941F004014FF0E022116107E04FF0A9
:1006D000E021096921F004014FF0E0221161704727
:1006E0000000FA050CED00E000E400E080E100E02D
:1006F00080FFFF1F10B50446CA48844208D101217B
:10070000042000F027FB0021042000F023FB46E03A
:10071000C548844208D10121082000F01BFB0021BC
:10072000082000F017FB3AE0C048844208D10121BC
:10073000102000F00FFB0021102000F00BFB2EE03A
:10074000BB48844208D10121202000F003FB002196
:10075000202000F0FFFA22E0B648844208D10121AF
:10076000402000F0F7FA0021402000F0F3FA16E0F4
:10077000B148844208D10121802000F0EBFA002129
:10078000802000F0E7FA0AE0AC48844207D101215A
:10079000801500F0DFFA0021A01500F0DBFA10BD93
:1007A00010B50121084600F0D5FA0021012000F023
:1007B000D1FA10BD2DE9F0410246002500260020A7
:1007C00000230024002791F803C00CF00F0591F8D6
:1007D00003C01CF0100F03D091F802C04CEA0505CD
:1007E00091F800C0BCF1000F31D0146800202BE05C
:1007F0004FF0010C0CFA00F3B1F800C00CEA03064C
:100800009E4220D183004FF00F0C0CFA03F7BC433B
:1008100005FA03FC4CEA040491F803C0BCF1280F6C
:1008200006D14FF0010C0CFA00FCC2F814C00AE02B
:1008300091F803C0BCF1480F05D14FF0010C0CFA40
:1008400000FCC2F810C0401C0828D1D31460B1F8D5
:1008500000C0BCF1FF0F34DD546800202EE000F131
:10086000080C4FF0010808FA0CF3B1F800C00CEACC
:1008700003069E4221D183004FF00F0C0CFA03F7C0
:10088000BC4305FA03FC4CEA040491F803C0BCF134
:10089000280F05D100F1080C08FA0CF8C2F81480F2
:1008A00091F803C0BCF1480F07D100F1080C4FF0DC
:1008B000010808FA0CF8C2F81080401C0828CED3B2
:1008C0005460BDE8F0814FF6FF7101800221817014
:1008D0000421C17070470246002093680B4201D08A
:1008E000012000E0002070470146886880B2704710
:1008F00002460020D3680B4201D0012000E0002016
:1009000070470146C86880B2704701617047416115
:1009100070470AB1016100E041617047C1607047F2
:100920004FF480320A438261816182618269826907
:10093000704702460020424B18684FF680731840FB
:1009400040EA021008433E4B186070473D49C861B9
:100950007047F0B50A46002300240021002500F06E
:100960000046B6F1004F02D1354EF16901E0344E38
:100970007168C0F3034583B200F44016B6F5401F1A
:1009800008D121F070612E4E766826F070662C4FEB
:100990007E6012E000F48016B6F5801F06D10326B3
:1009A00006FA05F4A14341F0706106E0460D3601F8
:1009B00003FA06F6B14341F0706122B1460D3601EB
:1009C00003FA06F6314300F00046B6F1004F02D1BB
:1009D0001B4EF16101E01A4E7160F0BD30B500228E
:1009E0008B071C0F0F2303FA04F2154B08338C10EE
:1009F00053F824309343124C08348D1044F82530BA
:100A000023468C1053F824308C07240F00FA04F48A
:100A100023430B4C08348D1044F8253030BD0A496F
:100A20000860704700080140000C014000100140C0
:100A30000014014000180140001C0140002001404A
:100A40000000014000002042DC002042DD48006838
:100A500040F00100DB49086008464068DA49084078
:100A6000D849486008460068D8490840D549086018
:100A70000846006820F4802008600846406820F49A
:100A8000FE0048604FF41F0088607047CD49096838
:100A900021F48031CB4A11601146096821F480218C
:100AA0001160B0F5803F03D0B0F5802F0ED106E085
:100AB000C449096841F48031C24A116007E0C14964
:100AC000096841F4A021BF4A116000E000BF00BFE7
:100AD000704710B501460022002300204A11012A68
:100AE00002D1B84C236806E0022A02D1B54C236A31
:100AF00001E0B44C636A01F01F02012494401C42DF
:100B000001D0012000E0002010BD38B50020009089
:100B10000024002500BF3120FFF7DBFF05460098C9
:100B2000401C00900098B0F5A06F01D0002DF2D0CD
:100B30003120FFF7CEFF08B1012400E00024204659
:100B400038BD014600209F4A106820F0F80040EAB6
:100B5000C100106070479E4908607047024600203F
:100B6000984B586820F47C1042EA01031843954BD7
:100B70005860704796490866704701460020914AC0
:100B8000506820F003000843506070478D4840686B
:100B900000F00C007047014600208A4A506820F09F
:100BA000F00008435060704701460020854A5068B5
:100BB00020F4E06008435060704701460020814AFD
:100BC000506820F4605040EAC1005060704729B17D
:100BD0007C4A527A02437B4B5A7204E0794A527A39
:100BE0008243784B5A7270477A49086070470146D1
:100BF0000020744A506820F4404008435060704719
:100C00000021754A11706F4A82F82010012802D025
:100C1000042808D103E001216F4A117004E0052186
:100C20006D4A117000E000BF00BF70476B4908605B
:100C300070476449096A0143624A11627047674913
:100C400044390860704730B5002100220024002399
:100C50005C4D6D6805F00C0121B1042905D008290F
:100C600023D105E05E4D056022E05D4D05601FE08B
:100C7000544D6D6805F47012524D6D6805F4803462
:100C8000022505EB92421CB9564D554305600BE019
:100C90004C4D6D6815F4003F03D0524D554305602F
:100CA00002E04F4D5543056002E04D4D056000BF29
:100CB00000BF444D6D6805F0F00109094A4D6B5CB9
:100CC0000568DD4045603F4D6D6805F4E061090A47
:100CD000454D6B5C4568DD4085603A4D6D6805F4B7
:100CE0006051C90A404D6B5C4568DD40C560354DBB
:100CF0006D6805F44041890B3C4D6B5CC568B5FBE4
:100D0000F3F5056130BD29B12E4A526902432D4BDE
:100D10005A6104E02B4A526982432A4B5A61704758
:100D200029B1284A92690243264B9A6104E0254A78
:100D300092698243234B9A61704729B1214AD26953
:100D40000243204BDA6104E01E4AD26982431D4B04
:100D5000DA61704729B11B4AD2680243194BDA6045
:100D600004E0184AD2688243164BDA60704729B112
:100D7000144A12690243134B1A6104E0114A1269C2
:100D80008243104B1A61704714494039086070471C
:100D90000F49C86470470B49C87170470948406AD9
:100DA00040F0807007494862704701460020054ABC
:100DB00092680A4201D0012000E0002070470149FA
:100DC00088727047001002400000FFF8FFFFF6FE37
:100DD00000004242D80042422010024080044242B9
:100DE00000127A0000093D001400002024000020B9
:100DF00010B50446FE48844208D10121C014FFF713
:100E0000A9FF0021E014FFF7A5FFC4E0B4F1804F73
:100E100008D101210846FFF7AAFF00210120FFF7B2
:100E2000A6FFB8E0F348844208D101210220FFF771
:100E30009EFF00210220FFF79AFFACE0EE488442BB
:100E400008D101210420FFF792FF00210420FFF7C1
:100E50008EFFA0E0E948844208D101210820FFF775
:100E600086FF00210820FFF782FF94E0E4488442D7
:100E700008D101211020FFF77AFF00211020FFF791
:100E800076FF88E0DF48844208D101212020FFF767
:100E90006EFF00212020FFF76AFF7CE0DA488442E1
:100EA00008D101214014FFF755FF00216014FFF71E
:100EB00051FF70E0D548844209D10121C804FFF7F1
:100EC00049FF00214FF40020FFF744FF63E0D048C2
:100ED000844209D101210805FFF73CFF00214FF4AE
:100EE0008010FFF737FF56E0CA48844209D101213C
:100EF0004805FFF72FFF00214FF40010FFF72AFFEE
:100F000049E0C548844208D101214020FFF72FFF66
:100F100000214020FFF72BFF3DE0C048844208D16C
:100F200001218020FFF723FF00218020FFF71FFF12
:100F300031E0BB48844208D101218015FFF717FF3B
:100F40000021A015FFF713FF25E0B648844209D120
:100F500001210804FFF7FEFE00214FF48030FFF767
:100F6000F9FE18E0B048844209D101214804FFF796
:100F7000F1FE00214FF40030FFF7ECFE0BE0AB4830
:100F8000844208D101218804FFF7E4FE00214FF4D8
:100F90008020FFF7DFFE10BD00220288944B9842AC
:100FA0000ED0994B98420BD0B0F1804F08D0914BA6
:100FB000984205D0904B984202D0904B984204D171
:100FC0004FF68F731A404B881A438D4B984207D0C7
:100FD0008C4B984204D04FF6FF431A40CB881A43FB
:100FE00002808B8883850B880385814B98420BD0C8
:100FF000854B984208D08B4B984205D08A4B98423B
:1010000002D08A4B984201D10B7A03860123838256
:10101000704770B5002400220023058C4FF6FE7641
:1010200035400584028C8388048B4FF68F752C40E5
:10103000B51E2C400D882C43751E2A400D892A436D
:101040004D882A436A4DA8420BD06F4DA84208D064
:10105000744DA84205D0744DA84202D0734DA842E9
:1010600013D14FF6F7752A404D892A434FF6FB7589
:101070002A408D882A434FF6FF652B404FF6FF55D7
:101080002B408D892B43CD892B4383800483CD88CE
:101090008586028470BD70B5002400220023058C73
:1010A0004FF6EF7635400584028C8388048B48F632
:1010B000FF752C404FF6FF452C400D884FF6FF760C
:1010C00006EA05252C434FF6DF752A400D8906EA0E
:1010D00005152A434D8806EA05152A43444DA842C2
:1010E00002D0494DA8421DD14FF67F752A404D8947
:1010F0004FF6FF7606EA05152A434FF6BF752A40DC
:101100008D8806EA05152A434FF6FF352B404FF22E
:10111000FF752B408D8906EA85052B43CD8906EAAC
:1011200085052B4383800483CD880587028470BDA9
:1011300070B5002400220023058C4FF6FF66354071
:101140000584028C8388848B4FF68F752C404FF674
:10115000FC752C400D882C434FF6FF552A400D8915
:101160004FF6FF7606EA05252A434D8806EA05254F
:101170002A431F4DA84202D0234DA8421DD14FF251
:10118000FF752A404D894FF6FF7606EA05252A436A
:101190004FF6FF352A408D8806EA05252A434EF68C
:1011A000FF752B404DF6FF752B408D8906EA05151E
:1011B0002B43CD8906EA05152B4383808483CD8894
:1011C0008587028470BD70B5002200230024058C41
:1011D0004EF6FF7635400584038C8488828B48F672
:1011E000FF752A404FF6FF452A400D8820E0000099
:1011F000002C01400004004000080040000C0040AA
:10120000001000400014004000340140004C014038
:10121000005001400054014000180040001C0040F4
:1012200000200040004001400044014000480140CF
:101230004FF6FF7606EA05252A434DF6FF752B404B
:101240000D8906EA05352B434D8806EA05352B4303
:10125000FA4DA84202D0FA4DA84208D14BF6FF75CC
:101260002C408D894FF6FF7606EA85152C43848045
:101270008283CD88A0F84050038470BD828B4FF2EA
:10128000FF331A408283828B4FF6FF7303EA0123F8
:101290001A4382837047F0B50C46154600220021A0
:1012A0000026078C4EF6FF7C07EA0C070784828B2A
:1012B000018C4FF6FF7707EA043640F6FF473A40C5
:1012C0004FF6FF7707EA05273A434FF6FF7707EA1D
:1012D00003373A43D94FB8420ED0D94FB8420BD05A
:1012E000B0F1804F08D0D74FB84205D0D64FB842A2
:1012F00002D0D64FB84206D14DF6FF77394046F4BA
:101300008057394305E047F6FF57394044F480578A
:10131000394382830184F0BD828B4FF6F3731A4008
:101320008283828B0A4382837047F0B50C46154650
:10133000002200210026078C4FF6FF6C07EA0C07FD
:101340000784828B018C4FF6FF7707EA04264FF65D
:101350000C773A404FF6FF7707EA03172F433A43DB
:10136000B64FB8420ED0B64FB8420BD0B0F1804F56
:1013700008D0B44FB84205D0B34FB84202D0B34FF3
:10138000B84206D14FF6FF57394046F480773943CB
:1013900005E04FF2FF57394044F4807739438283A8
:1013A0000184F0BD028B4FF2FF331A400283028B9F
:1013B0004FF6FF7303EA01231A4302837047F0B527
:1013C0000C461546002200210026078C4FF6EF7CC4
:1013D00007EA0C070784028B018C4FF6FF7707EAB8
:1013E000041640F6FF473A404FF6FF7707EA033707
:1013F0003A434FF6FF7707EA05273A438F4FB84243
:101400000ED08F4FB8420BD0B0F1804F08D08D4F27
:10141000B84205D08C4FB84202D08C4FB84206D1AA
:101420004FF6DF77394046F01007394305E04FF6B5
:101430005F77394044F01007394302830184F0BDDF
:10144000028B4FF6F3731A400283028B0A43028326
:101450007047F0B50C46154600220021068C4FF669
:10146000FE773E400684028B018C4FF60C763240AC
:101470007E1C06EA03162E433243704EB0420ED055
:101480006F4EB0420BD0B0F1804F08D06D4EB042DD
:1014900005D06D4EB04202D06C4EB04206D14FF630
:1014A000FD76314044F00106314305E04FF6F57614
:1014B000314044F00106314302830184F0BD70B530
:1014C00005460C465D4885420ED05D4885420BD0EE
:1014D000B5F1804F08D05B48854205D05A48854217
:1014E00002D05A48854200D100E000BF208850B9A0
:1014F0002389A28861882846FFF7ABFFE188284648
:10150000FFF79EFF25E0208804280AD12389A288BE
:1015100061882846FFF753FFE1882846FFF742FF1E
:1015200017E0208808280AD12389A28861882846E4
:10153000FFF7FBFEE1882846FFF7EEFE09E023896E
:10154000A28861882846FFF7A6FEE1882846FFF7B3
:1015500095FE70BD2DE9F04105460C460026012799
:10156000608808B9022600E00026A088012801D181
:10157000022700E001272088A0B92389A28861887A
:101580002846FFF766FFE1882846FFF759FF2389C1
:101590003A4631462846FFF712FFE1882846FFF712
:1015A00001FF13E02389A28861882846FFF707FF1F
:1015B000E1882846FFF7F6FE23893A463146284659
:1015C000FFF747FFE1882846FFF73AFFBDE8F081C3
:1015D0000A884B881A438B881A43CB881A430B8995
:1015E0001A434B891A438B891A43A0F84420704749
:1015F0004FF6FF71818000210180C180418001721E
:1016000070470021018041808180C180018141813A
:101610008181C18170470021018041800121818049
:101620000021C180018170470021018041808180BB
:10163000C18001814181818170470000002C0140FF
:10164000003401400004004000080040000C00404D
:1016500021B1028842F00102028004E002884FF6C4
:10166000FE731A400280704731B1B0F8442042F452
:101670000042A0F8442005E0B0F84420C2F30E0276
:10168000A0F8442070471AB183890B43838102E09C
:1016900083898B43838170478182704741EA0203CB
:1016A000A0F8483070471AB183890B43838102E068
:1016B00083898B438381704701894FF6F87211400B
:1016C000018170470A46002101894FF68F73194046
:1016D00011430181704730B504460D462946204626
:1016E000FFF7F0FF208940F00700208130BD2DE991
:1016F000F04104460D4616461F46602D06D13B4676
:10170000012231462046FFF75AFE05E03B46012202
:1017100031462046FFF79DFE29462046FFF7D2FFBF
:10172000208940F007002081BDE8F08130B50C46EB
:1017300000210189C9B24FF6FF7505EA032515435B
:1017400025432943018130BD2DE9F04105460E4670
:1017500017469846002443463A4631462846FFF746
:10176000E5FF2C894FF6F870044044F007044FF66B
:101770008F70044044F070042C81BDE8F081F0B516
:1017800004460D4616461F463B463246294620462D
:10179000FFF7CCFF208940F480402081F0BD018517
:1017A000828270470A46002101884FF68F731940E4
:1017B000114301807047F0B50C4615461E460021C6
:1017C000002200230189028B038C4FF6F877394001
:1017D00021434FF6FC473A4040F201173A434FF697
:1017E000DD773B404FF6FF7707EA06172F433B4371
:1017F000018102830384F0BD0A460021018B4FF66C
:101800008F7319401143018370470A460021018BF1
:1018100048F6FF7319404FF6FF7303EA022319439A
:10182000018370470A460021818B4FF68F73194060
:101830001143818370470A460021818B48F6FF736C
:1018400019404FF6FF7303EA02231943818370475F
:1018500021B1028842F08002028004E002884FF643
:101860007F731A400280704721B1828842F00402DF
:10187000828004E082884FF6FB731A4082807047B2
:1018800021B1828842F00802828004E082884FF60B
:10189000F7731A408280704721B1828842F00102BA
:1018A000828004E082884FF6FE731A40828070477F
:1018B0000A460021018B4FF6F7731940114301834B
:1018C00070470A460021018B4FF2FF7319404FF613
:1018D000FF7303EA02231943018370470A4600217C
:1018E000818B4FF6F77319401143818370470A4685
:1018F0000021818B4FF2FF7319404FF6FF7303EA0B
:1019000002231943818370470A460021018B4FF659
:10191000FB7319401143018370470A460021018B74
:101920004FF6FF3319404FF6FF7303EA02231943C2
:10193000018370470A460021818B4FF6FB731940E3
:101940001143818370470A460021818B4FF6FF3394
:1019500019404FF6FF7303EA02231943818370474E
:101960000A460021018B4FF67F7319401143018312
:1019700070470A460021018BC1F30E014FF6FF7339
:1019800003EA02231943018370470A460021818B31
:101990004FF67F7319401143818370470A46002137
:1019A000818BC1F30E014FF6FF7303EA0223194343
:1019B000818370470A460021018C4FF6FD73194060
:1019C0001143018470470A460021018C4FF6F773DA
:1019D00019401143018470470A460021018C4FF6DB
:1019E000DF7319404FF6FF7303EA021319430184B2
:1019F00070470A460021018C4FF67F7319404FF65D
:101A0000FF7303EA02131943018470470A46002159
:101A1000018C4FF6FF5319404FF6FF7303EA022380
:101A20001943018470470A460021018C4FF2FF736D
:101A300019404FF6FF7303EA0223194301847047EC
:101A40000A460021018C4DF6FF7319404FF6FF73D3
:101A500003EA023319430184704730B5002301249F
:101A60008C40A3B2048C9C430484048C02FA01F5DC
:101A7000ADB22C43048430BD30B5002304248C4027
:101A8000A3B2048C9C430484048C02FA01F5ADB229
:101A90002C43048430BD70B5034600200024184652
:101AA000183001258D40ACB21D8CA5431D8409B1B1
:101AB000082909D100EB6100056825F07005056073
:101AC0000568154305600EE00D1FC5F34E0528445B
:101AD000056825F4E045056005684FF6FF7606EADF
:101AE00002263543056070BD21B1028842F0020232
:101AF000028004E002884FF6FD731A4002807047AE
:101B000021B1028842F00402028004E002884FF60C
:101B1000FB731A400280704721B1828842F0800234
:101B2000828004E082884FF67F731A40828070477B
:101B300002884FF6F7731A40028002880A43028037
:101B4000704782884FF68F731A40828082880A43DA
:101B50008280704702894FF6F8731A400281028929
:101B60000A430281704702894FF67F731A4002814F
:101B700002890A43028170478184704781857047DA
:101B8000818670470187704781877047A0F84010B1
:101B9000704702884FF6FF431A40028002880A43CA
:101BA000028070470146888E70470146088F704753
:101BB0000146888F70470146B1F8400070470146E2
:101BC000888C70470146088D704702460020138AB2
:101BD0000B4201D0012000E000207047CA4302827E
:101BE000704730B50246002000230024158A05EA1C
:101BF0000103958905EA010413B10CB1012000E04D
:101C0000002030BDCA4302827047000010B5044670
:101C1000FB48844209D101218803FFF79BF800218A
:101C20004FF48040FFF796F832E0F648844209D13D
:101C300001214804FFF79BF800214FF40030FFF723
:101C400096F825E0F048844209D101218804FFF785
:101C50008EF800214FF48020FFF789F818E0EB4858
:101C6000844209D10121C804FFF781F800214FF413
:101C70000020FFF77CF80BE0E548844208D1012101
:101C80000805FFF774F800214FF48010FFF76FF894
:101C900010BD2DE9F04786B005460E460024A24649
:101CA00000BFA1460027B08900B100BF2F462C8A93
:101CB0004CF6FF700440F08804432C82AC894EF649
:101CC000F3100440B0883189084371890843044304
:101CD000AC81AC8A4FF6FF400440B0890443AC822B
:101CE00001A8FEF7B0FFC648874202D1DDF810A078
:101CF00001E0DDF80CA0A88910F4004F08D00AEB31
:101D0000CA0000EB0A1031684900B0FBF1F807E0A7
:101D10000AEBCA0000EB0A1031688900B0FBF1F849
:101D20006420B8FBF0F004012009642101FB108954
:101D3000A88910F4004F08D0322000EBC900B0FB96
:101D4000F1F000F00700044308E0322000EB091036
:101D50006421B0FBF1F000F00F0004432C8106B0C9
:101D6000BDE8F0874FF41651016000218180C180E9
:101D700001810C21418100218181704710B502460B
:101D80000020108A4FF2FF0318400B884C88234331
:101D90008C882343CC8823431843108210BD002134
:101DA000018041808180C180704721B1828942F4E5
:101DB0000052828104E082894DF6FF731A408281CD
:101DC0007047F0B503460024002600250020A1F549
:101DD00010676A3F00D100BF1846C1F3421401F0FA
:101DE0001F06012707FA06F5012C01D10C3004E08B
:101DF000022C01D1103000E014301AB107682F43D3
:101E0000076002E00768AF430760F0BD1AB1838A3C
:101E10000B43838202E0838A8B4383827047028A6A
:101E20004FF6F0731A400282028A0A430282704718
:101E300082894FF2FF731A40828182890A4382812C
:101E4000704721B1828942F00202828104E08289D6
:101E50004FF6FD731A4082817047028A4FF6DF7396
:101E60001A400282028A0A430282704721B1028A22
:101E700042F48042028204E0028A4BF6FF731A4069
:101E800002827047C1F30802828070470146888849
:101E9000C0F308007047818941F0010181817047DA
:101EA000028BD2B20283028B42EA01220283704784
:101EB000028B02F47F420283028B0A430283704743
:101EC00021B1828A42F02002828204E0828A4FF6A7
:101ED000DF731A408282704721B1828A42F0100279
:101EE000828204E0828A4FF6EF731A408282704742
:101EF00021B1828A42F00802828204E0828A4FF68F
:101F0000F7731A408282704721B1828942F40042FD
:101F1000828103E08289C2F30E028281704721B17F
:101F2000828A42F40062828204E0828A4FF2FF7366
:101F30001A4082827047828A4FF6FB731A4082826F
:101F4000828A0A438282704721B1828A42F0020269
:101F5000828204E0828A4FF6FD731A4082827047C3
:101F600002460020B1F5007F00D100BF13880B426C
:101F700001D0012000E00020704701F40072B2F5AA
:101F8000007F00D100BFCA430280704770B502468F
:101F90000024002300250020A1F510666A3E00D130
:101FA00000BFC1F3421501F01F03012606FA03F337
:101FB000012D02D19689334006E0022D02D1168A06
:101FC000334001E0968A33400C12012606FA04F4ED
:101FD0001688344013B10CB1012000E0002070BD20
:101FE00010B500220023A1F510646A3C00D100BFA7
:101FF0000A1201249440A3B2DC43048010BD000007
:10200000003801400044004000480040004C0040BF
:102010000050004001684FF6FE721140016000213F
:10202000016041608160C1608C49884208D18B4960
:102030000839496841F00F01884A083A51608AE03E
:1020400086491431884208D184490839496841F0E9
:10205000F001824A083A51607DE080492831884287
:1020600008D17E490839496841F470617B4A083AD1
:10207000516070E079493C31884208D1774908398C
:10208000496841F47041754A083A516063E0734908
:102090005031884208D171490839496841F47021AA
:1020A0006E4A083A516056E06C496431884208D162
:1020B0006A490839496841F47001684A083A516030
:1020C00049E066497831884208D16449083949684D
:1020D00041F07061614A083A51603CE060498842D1
:1020E00006D1011F096841F00F01021F116032E0A3
:1020F0005B491431884208D15949091F096841F0E8
:10210000F001574A121F116025E0554928318842D5
:1021100008D15349091F096841F47061504A121FE0
:10212000116018E04E493C31884208D14C49091FE2
:10213000096841F470414A4A121F11600BE0484996
:102140005031884207D14649091F096841F470217E
:10215000434A121F1160704710B50022026847F60B
:10216000F0739A430C6A8B6823430C6923434C69D0
:1021700023438C692343CC6923434C6A23438C6AF1
:1021800023431A430260CB6843600B6883604B684B
:10219000C36010BD0021016041608160C1600161C8
:1021A00041618161C161016241628162704721B117
:1021B000026842F00102026004E002684FF6FE731A
:1021C0001A40026070471AB103680B43036002E0D3
:1021D00003688B430360704741607047014648685D
:1021E00080B2704701460020002211F0805F03D0CA
:1021F0001B4B083B1A6802E0184B083B1A680A425E
:1022000001D0012000E00020704710F0805F03D073
:102210001349091F086002E01049083948607047F7
:1022200001460020002211F0805F03D00C4B083BD8
:102230001A6802E0094B083B1A680A4201D00120E3
:1022400000E00020704710F0805F03D00449091FB0
:10225000086002E001490839486070470800024000
:102260000804024013B5044601AA2146502000F09C
:10227000D4FA1CBD2DE9F04104460D461646002750
:102280000CE02A462146502000F0C7FA601CC4B278
:102290006D1C052000F091F8781CC7B2B742F0DB46
:1022A000BDE8F08170B504460D462A46214650200F
:1022B00000F0E1FA70BD70B504460D46164633468F
:1022C0002A462146502000F045FB70BDF7B5044674
:1022D000154600266019B0F5807F01DD0120FEBDA6
:1022E0000BE001AA2146502000F097FA601CC4B20E
:1022F000022000F062F8701C86B2AE42F1DB0020D2
:10230000EDE7000010B5044622464FF480710E48F8
:10231000FEF7FFFA0D48047010BD08B50121082032
:10232000FEF7FEFC10208DF803000001ADF8000060
:1023300003208DF8020069460348FEF73BFA0020AF
:10234000FFF7E0FF08BD0000000C0140280000205E
:102350004FF0E020006920F004004FF0E021086118
:102360000920354908700846007800EB4001C1EBB0
:10237000C0104FF6FF7101EAC00030490880704775
:10238000002120F07F402C4A127842434FF0E02396
:102390005A6100229A6101221A6100BF4FF0E022C7
:1023A000116911F0010F02D011F4803FF6D0002224
:1023B0004FF0E0231A619A617047002100B970471D
:1023C00020F07F401D4A128842434FF0E0235A61BB
:1023D00000229A6101221A6100BF4FF0E0221169C8
:1023E00011F0010F02D011F4803FF6D000224FF01F
:1023F000E0231A619A6100BFE1E770B50446002648
:1024000000254FF4FA7094FBF0F0C6B24FF4FA7066
:1024100094FBF0F100FB114085B205E04FF4FA7037
:10242000FFF7CBFF701EC6B2002EF7D115B12846BC
:10243000FFF7C3FF70BD00002A0000202C00002021
:1024400070B588B006460C4615466748864204D1EA
:102450000121C014FEF764FC07E001211020FEF703
:102460005FFC01214803FEF75BFC18208DF81F007C
:102470000001ADF81C0003208DF81E0007A95B4881
:10248000FEF798F90020ADF81600ADF81200ADF88F
:102490001440ADF8105004A93046FEF77DFD7020C1
:1024A000ADF800000120ADF802000220ADF80800F0
:1024B0000020ADF8060069463046FEF7ECFD69469F
:1024C0003046FEF735FE01213046FFF7CDF80821F2
:1024D0003046FFF7F6F908213046FFF7FFF90121F2
:1024E0003046FFF7B5F901213046FFF7B1F808B0E3
:1024F00070BD7FB506460C4615463D48864207D15D
:1025000001211020FEF719FC36208DF8000006E0AE
:1025100001212020FEF711FC37208DF8000000205B
:10252000ADF80600ADF80840ADF8045001A93046FA
:10253000FEF732FD012211463046FFF7A4F80120D4
:102540008DF803008DF801008DF802006846FEF753
:1025500068F801213046FFF77BF87FBD10B50121F7
:102560002348FFF73EFB01280DD122480068401C9C
:102570002049086010F1060F01D3002008600121F6
:102580001B48FFF73FFB10BD10B501211A48FFF7AC
:1025900028FB012826D1194890F8520010F0010FAD
:1025A00019D117480088401C80B2154908803C2882
:1025B00014DB1448008820F0100012490880002025
:1025C00002F09FFB0D4890F8520020F001000B49EB
:1025D00081F8520002E000200949088001210648E4
:1025E000FFF710FB10BD0000002C0140001001405F
:1025F000001000403400002000140040DC000020E7
:102600003000002040000020F4490880704708B5E1
:1026100001210820FEF784FB14208DF80300C02060
:10262000ADF8000003208DF802006946EC48FEF783
:10263000C1F80520FFF7E8FF8021E948FEF765F9BA
:102640004021E748FEF761F908BD10B58021E44854
:10265000FEF75BF94021E248FEF757F9DF490888A9
:10266000FFF78EFE8021DE48FEF751F9DB4908882E
:10267000FFF786FE4021DA48FEF749F910BD10B594
:102680008021D748FEF743F94021D548FEF73FF9AE
:10269000D2490888FFF774FE4021D148FEF735F98A
:1026A0008021CF48FEF731F9CC490888FFF768FE52
:1026B00010BD10B504468021C948FEF726F9C74968
:1026C0000888FFF75DFE4021C548FEF71EF9C349A3
:1026D0000888FFF755FE0EE0601E040007D1C1A177
:1026E000C54800F00FFEFFF7CAFF012010BDBB492F
:1026F0000888FFF745FE8021B948FEF7ECF800286E
:10270000EAD14021B648FEF702F90020EEE710B505
:102710004021B348FEF7FBF88021B148FEF7F7F8F7
:10272000AE490888FFF72CFE4021AD48FEF7EDF8D2
:10273000AA490888FFF724FE4021A948FEF7E7F8D8
:1027400010BD10B54021A648FEF7E1F88021A4484D
:10275000FEF7DBF8A1490888FFF712FE4021A048E8
:10276000FEF7D3F89D490888FFF70AFE40219C48F0
:10277000FEF7CDF810BD70B50446002540219848FD
:10278000FEF7C5F81FE014F0800F04D080219448B4
:10279000FEF7BBF803E080219148FEF7B8F8600629
:1027A000040E8E490888FFF7EBFD40218C48FEF7A8
:1027B000ACF88A490888FFF7E3FD40218848FEF716
:1027C000A6F8681CC5B2082DDDDB70BD70B500250C
:1027D000002480218248FEF798F81AE040218048C2
:1027E000FEF795F87D490888FFF7CAFD40217C482F
:1027F000FEF78BF86006040E80217948FEF76BF82F
:1028000008B1601CC4B275490888FFF7B9FD681C9F
:10281000C5B2082DE2DB204670BD2DE9F04105462A
:102820000E46144600276806070EFFF70EFF3846CF
:10283000FFF7A1FF41F28830FFF73BFF10B1012005
:10284000BDE8F0813046FFF796FF41F28830FFF790
:1028500030FF08B10120F3E74CB12078FFF78BFF80
:1028600041F28830FFF725FF08B10120E8E7FFF7C4
:1028700006FF0020E4E72DE9F04104460D46164628
:1028800000276006070EFFF7E0FE3846FFF773FFEC
:1028900041F28830FFF70DFF10B10120BDE8F08153
:1028A0002846FFF768FF41F28830FFF702FF08B1C2
:1028B0000120F3E7FFF7C9FE791CC8B2FFF75BFF01
:1028C00041F28830FFF7F5FE08B10120E6E7FFF797
:1028D0007DFF3070FFF735FFFFF7D1FE0020DDE709
:1028E0002DE9F04105460E4614461F464FF00008FC
:1028F00068064FEA1068FFF7A8FE4046FFF73BFF67
:1029000041F28830FFF7D5FE10B10120BDE8F0811B
:102910003046FFF730FF41F28830FFF7CAFE08B1BA
:102920000120F3E70DE02078FFF725FF41F2883022
:10293000FFF7BFFE08B10120E8E7641C0A20FFF79B
:102940001FFD3800A7F10101CFB2ECD1FFF797FED0
:102950000020DBE72DE9F04106460F4614461D46F0
:102960004FF000084FEA4608FFF76FFE08F0FF003F
:10297000FFF701FF41F28830FFF79BFE10B1012005
:10298000BDE8F0813846FFF7F6FE41F28830FFF7E8
:1029900090FE08B10120F3E7FFF757FE08F10101AF
:1029A000C8B2FFF7E8FE41F28830FFF782FE08B1B7
:1029B0000120E5E709E0FFF709FF2070641C15B965
:1029C000FFF7BFFE01E0FFF7A2FE2800A5F101011D
:1029D000CDB2F0D1FFF753FE0020D1E73800002040
:1029E000000C01405761697441636B2054696D6547
:1029F0004F75740D0A0000000038014008B5002032
:102A0000009069467820FFF74DFC9DF8000018B152
:102A10009DF800000A2801DB012008BD69468C20D2
:102A2000FFF740FC9DF8000018B19DF800001E283B
:102A300001DB0220F1E70020EFE738B50446002073
:102A4000009014B1012C1CD10DE069467820FFF7ED
:102A500029FC9DF8000018B19DF800000A2801DB50
:102A6000012038BD0DE069468C20FFF71BFC9DF866
:102A7000000018B19DF800001E2801DB0120F0E7DE
:102A800000BF00BF9DF80000EBE770B506460025CB
:102A900058A1304604F00BF80446641C07E0207887
:102AA0000D2801D1284670BD641C681CC5B2F6E72C
:102AB00010B50F21504804F032F90020FFF7BDFF98
:102AC000044622464C497920FFF7F5FB0A20FFF720
:102AD00074FC232148480F3004F0FFF80120FFF771
:102AE000ACFF0446224644490F318D20FFF7E3FB3B
:102AF000002010BD2DE9F0410646002500273FA12A
:102B0000304603F0D4FF04002AD02046FFF7BDFF73
:102B10000546002D24DD0F21374804F000F92A4630
:102B2000A11D354804F022F9334A36A13B4800F094
:102B3000E9FB314804F01DF800F0FF084146782019
:102B4000FFF790FB0A20FFF738FC2B4804F011F840
:102B500000F0FF08424628497920FFF78BFB012748
:102B60002FA1304603F0A3FF040030D02046FFF72A
:102B70008CFF0546002D2ADD23211F480F3004F06D
:102B8000ACF82A46E11D1C480F3004F0EFF81A4A51
:102B90000F3225A1214800F0B5FB17480F3003F094
:102BA000E8FF00F0FF0841468C20FFF75BFB0A209E
:102BB000FFF703FC10480F3003F0DBFF00F0FF08C5
:102BC00042460D490F318D20FFF754FB012738464F
:102BD000BDE8F08110B504464FF4B471204604F00E
:102BE0009EF8201D03F030FB00202062012060626F
:102BF00010BD00003A000000DC00002044455649AA
:102C0000443A0000546970733A0953617665204470
:102C1000455649443A2025730D0A0000003801400A
:102C20004150494B45593A00546970733A09536110
:102C30007665204150494B45593A2025730D0A00CD
:102C400008B501210C20FEF76BF848208DF8030031
:102C500041F20300ADF8000003208DF80200694640
:102C60005A48FDF7A7FD4FF48070ADF800006946A3
:102C70005748FDF79FFD08BD70B504460D46534803
:102C8000844207D1A9B2FDF726FE08B9012070BD24
:102C90000020FCE74E48844207D1A9B2FDF71BFE95
:102CA00008B90120F3E70020F1E70020EFE710B5B5
:102CB00002214648FFF7E0FF78B14648007840F02F
:102CC00001004449087001E0FF2010BD02213F4887
:102CD000FFF7D2FF0028F7D10CE03E48007810F053
:102CE000010F07D03B48007800F0FE00394908701A
:102CF0000020EAE74FF480713548FFF7BDFF80B14F
:102D00003448007840F002003249087001E0FF20AA
:102D1000DBE74FF480712E48FFF7AEFF0028F6D1B5
:102D20000CE02C48007810F0020F07D029480078FA
:102D300000F0FD00274908700320C6E74FF48051DA
:102D40002248FFF799FF80B12248007840F0040044
:102D50002049087001E0FF20B7E74FF480511B487D
:102D6000FFF78AFF0028F6D10CE01A48007810F02F
:102D7000040F07D01748007800F0FB0015490870D1
:102D80000620A2E701211148FFF776FF78B111482C
:102D9000007840F008000F49087001E0FF2094E738
:102DA00001210A48FFF768FF0028F7D10CE0094825
:102DB000007810F0080F07D00648007800F0F70000
:102DC00004490870092080E7FF207EE7000C0140DD
:102DD000000801403A00002010B50446012C01D043
:102DE000012000E0002002464FF480513648FDF7F4
:102DF00090FD0CB1012000E000203449C87010BDE6
:102E000010B50446012C01D0012000E0002002464C
:102E10004FF400612C48FDF77CFD0CB1012000E06F
:102E200000202A49887010BD10B50446012C01D03D
:102E3000012000E0002002464FF480712448FDF795
:102E400068FD0CB1012000E000202049487010BD51
:102E500010B50446012C01D0012000E000200246FC
:102E60004FF400711A48FDF754FD0CB1012000E049
:102E700000201649087010BD08B501211420FDF787
:102E80004FFF10208DF803004FF44070ADF80000A4
:102E900003208DF8020069460D48FDF78BFC4FF4C6
:102EA000C050ADF8000069460748FDF783FC0020DC
:102EB000FFF7CEFF0020FFF7B7FF0020FFF7A0FFCE
:102EC0000020FFF789FF08BD000801403B000020FB
:102ED0000010014008B5002000906A46E72140201C
:102EE000FFF7C9FC9DF8000058B124A1264800F066
:102EF00009FA2648008820F00100401C2349088078
:102F000003E023A1204800F0FDF90120FFF755FA66
:102F10006A4600215320FFF7AEFC9DF80000E5282B
:102F20000BD11FA1184800F0EDF91848008820F0D7
:102F30000200801C1549088003E01DA1124800F022
:102F4000E1F90120FFF739FA6A46FF215020FFF727
:102F500092FC58B91BA10C4800F0D4F90B4800882A
:102F600020F00400001D0949088003E019A106486B
:102F700000F0C8F90120FFF720FA08BD5348543289
:102F800030203A4F6B0D0A0000380140400000200D
:102F90005348543230203A4572726F720D0A000065
:102FA0004144584C333435203A4F6B0D0A00000031
:102FB0004144584C333435203A4572726F720D0AD1
:102FC00000000000454550524F4D203A4F6B0D0A0E
:102FD00000000000454550524F4D203A4572726F37
:102FE000720D0A0070B504460D461646FE4884422E
:102FF0000FD10021FD48FFF7DAF8FC484438056599
:103000003146FA48FFF7E8F80121F848FFF7CFF812
:1030100011E0F74884420ED10021F4483C30FFF71C
:10302000C6F8F44805603146F348FFF7D5F80121AA
:10303000F148FFF7BCF870BD10B592B0044601210D
:103040000846FDF760FE01210420FDF769FE01211D
:103050008803FDF765FE18208DF847004FF40070D7
:10306000ADF8440003208DF8460011A9E348FDF7B0
:10307000A1FB04208DF847000002ADF844000320B6
:103080008DF8460011A9DD48FDF794FB0D94002052
:10309000ADF840000C20ADF83E000020ADF83C003B
:1030A000ADF83A00ADF838000DA9CF48FEF7F1FDB4
:1030B0000121CD48FEF779FE012240F22551CA4890
:1030C000FEF77FFE25208DF8300001208DF83300BB
:1030D00000208DF8310002208DF832000CA8FDF799
:1030E000A0FAC248FEF796FFBF48001D01900020DD
:1030F00002901020039000200490059080200690FC
:1031000000200790089009904FF480500A9000200A
:103110000B9001A9B548FFF71FF801228021B248A2
:10312000FEF774FE0122B649AF48FFF75BFF12B00D
:1031300010BD10B592B0044601210846FDF7E3FD2D
:1031400001210420FDF7ECFD01214804FDF7F5FD08
:1031500018208DF847000420ADF8440003208DF8B6
:10316000460011A9A548FDF725FB04208DF847006E
:103170000820ADF8440003208DF8460011A99F48AF
:10318000FDF718FB0D940020ADF840000C20ADF8C1
:103190003E000020ADF83C00ADF83A00ADF8380034
:1031A0000DA99348FEF775FD01219148FEF7FDFD3D
:1031B000012240F225518E48FEF703FE26208DF8AD
:1031C000300001208DF8330000208DF831008DF89B
:1031D00032000CA8FDF725FA8748FEF71BFF84484C
:1031E000001D019000200290102003900020049008
:1031F00005908020069000200790089009904FF4D9
:1032000080500A9000200B9001A97B48FEF7A4FF94
:10321000012280217648FEF7F9FD012278497448A1
:10322000FFF7E0FE12B010BD10B586B004460121D4
:103230000820FDF775FD01218804FDF77EFD1820AB
:103240008DF817004FF48060ADF8140003208DF85E
:10325000160005A96B48FDF7ADFA04208DF817009C
:103260004002ADF8140003208DF8160005A965484A
:10327000FDF7A0FA01940020ADF810000C20ADF885
:103280000E000020ADF80C00ADF80A00ADF8080003
:1032900001A95D48FEF7FDFC01215B48FEF785FDB5
:1032A000012240F225515848FEF78BFD06B010BDB3
:1032B0002DE9F04104460D4616462F464A48844201
:1032C0000BD100BF4FF40050FEF78CFF0028F9D05F
:1032D0004FF40050FEF799FF0DE0454884420AD1B3
:1032E00000BF4FF00070FEF77DFF0028F9D04FF0CF
:1032F0000070FEF78AFF324639462046FFF772FE1D
:10330000BDE8F0810FB4F8B504463D4D364884421F
:103310000BD100BF4FF40050FEF764FF0028F9D036
:103320004FF40050FEF771FF0DE0314884420AD19E
:1033300000BF4FF00070FEF755FF0028F9D04FF0A6
:103340000070FEF762FF4FF494712D4803F0C5FC46
:1033500008A800902A48009A079903F063F9002012
:103360000090284603F005FC86B2324624492046E8
:10337000FFF738FEF8BC5DF814FB10B54FF40050B1
:10338000FEF74EFF012802D14003FEF73EFF10BDBD
:1033900010B54FF00070FEF743FF012802D1400640
:1033A000FEF733FF10BD10B540F225510E48FEF771
:1033B000EDFD68B3154803F0DCFB144991F8961055
:1033C000884203D20020114981F896000648001D6A
:1033D0000088C1B20D4890F8962090F89600401CE5
:1033E0000A4B83F8960014E0003801404400024084
:1033F000004400408C000240800002400008014070
:10340000EF010020000C014000480040580100205E
:1034100005E01846815420210148FEF7AEFD10BD9D
:103420000038014008B50D208DF8000001208DF80E
:10343000010000208DF8020001208DF8030068468D
:10344000FDF7EFF808BD10B54FF48060FEF7E8FE19
:1034500030B10120D74908708002FEF7D6FE0AE09D
:103460004FF40070FEF7DCFE28B10120D24908704D
:103470004002FEF7CAFE10BD00B58BB00121084620
:10348000FDF741FCCD480090CD480190002002900E
:103490004FF40070039000200490802005900020DD
:1034A0000690079020200890C001099000200A9003
:1034B0006946C448FEF750FEFFF7B4FF012206211B
:1034C000C048FEF780FE0121BE48FEF770FE0122D3
:1034D0004021BA48001FFEF799FC0BB000BD7047B1
:1034E000704710B504462046FFF79EFEFFF7C4FF65
:1034F00002F034F8AFF21701016002F02FF8AFF2DA
:1035000021014160B048FFF765FBB04802F0C0FC04
:1035100010BD024602F5FA6111F0030F10D14FF40D
:10352000C87091FBF0F300FB131028B1642091FBED
:10353000F0F300FB131008B1012070470020FCE7F6
:103540000020FAE72DE9FF4F81B0804689461646F4
:1035500016B905B0BDE8F08F0C2E00DDF9E7D8F8FC
:1035600000A0D8F80440D8F80850D8F80C70D8F863
:1035700010B0D8F8140000900498002844D0B8196E
:10358000182801D2374480E0B819A0F11807012C9F
:1035900009D0032C07D0052C05D0072C03D0082C0C
:1035A00001D00A2C06D11F2D01D26D1C6DE0012522
:1035B000641C6AE0042C05D0062C03D0092C01D031
:1035C0000B2C06D11E2D01D26D1C5EE00125641C62
:1035D0005BE0022C0DD11D2D06D01C2D07D10AF069
:1035E000FF00FFF796FF10B90125641C4DE06D1C2C
:1035F0004BE00C2C49D11F2D01D26D1C45E001255B
:1036000001240AF1010A40E0B74201D3BF1B3CE0AC
:1036100007F11800871B022C09D0042C07D0062CB8
:1036200005D0082C03D0092C01D00B2C06D1012D7C
:1036300001D96D1E29E01F25641E26E0052C05D04A
:10364000072C03D00A2C01D00C2C06D1012D01D956
:103650006D1E1AE01E25641E17E0032C0BD1012DF0
:1036600007D10AF0FF00FFF754FF10B91C25641EB4
:103670000BE06D1E09E0012C07D1012D01D96D1E53
:1036800003E01F250C24AAF1010AC9F800A0C9F81B
:103690000440C9F80850C9F80C70C9F810B0009877
:1036A000C9F8140000BF54E72DE9F05F41480078E5
:1036B00068B1454B4FF480724149444802F064FDC3
:1036C00000203C4908700120414908700FE03A4849
:1036D000007860B13C4B4FF480723E493B4802F0A9
:1036E00053FD0020344908700120394908703848DA
:1036F000007800285BD00123082237493248001D9A
:10370000FFF720FF3048D0E91021104605F08EFE6B
:10371000642190FBF1F4204605F0B7FE2F4A03C266
:103720002948D0E91221104605F080FE642190FB63
:10373000F1F4204605F0A9FE294A03C20022294BD4
:10374000264903C905F0F4FE80461F48D0E91063FE
:103750003246404606F020F882460022224B05F011
:10376000D1FC04461D480CC8204605F00FFC1B4A3E
:1037700003C200221B4B1A4903C905F0D9FE0446B7
:103780001148D0E912633246204606F005F880461B
:103790000022154B05F0B6FC824611480CC8504675
:1037A00005F0F4FB0E4A03C2002009490870BDE889
:1037B000F09F00004900002048000020044800401D
:1037C0001803002030000240180500208006002069
:1037D0004A00002018040020940600205000002019
:1037E000580000200000594000004E4070B50546CA
:1037F00000247E48FDF785F8044624F0FF04E8B273
:10380000044321467948FDF789F80A20FEF7B8FD00
:1038100070BD10B504464FF400517548FDF777F8B8
:103820004FF480417248FDF772F82046FFF7DEFF43
:103830004FF400416E48FDF768F81420FEF7A0FD34
:103840004FF400416A48FDF762F80520FEF798FD45
:1038500010BD10B504460A20FEF7AFFD4FF400512D
:103860006348FDF754F84FF480416148FDF74FF885
:103870002046FFF7BBFF4FF400415D48FDF745F8D8
:103880001420FEF77DFD4FF400415948FDF73FF845
:103890000520FEF775FD10BD10B504464FF400512C
:1038A0005348FDF732F84FF480415148FDF72FF8A7
:1038B0002046FFF79BFF4FF400414D48FDF725F8E8
:1038C0001420FEF75DFD4FF400414948FDF71FF855
:1038D0000520FEF755FD10BD08B501211820FDF7A4
:1038E0001FFA10208DF80300FF20ADF80000032020
:1038F0008DF8020069463D48FCF75CFF4FF46040DC
:10390000ADF8000069463A48FCF754FF0F20FEF777
:1039100054FD3820FFF77DFF0520FEF74EFD3820CF
:10392000FFF777FF0520FEF748FD3820FFF771FF0E
:103930003820FFF78EFF0820FFF78BFF0120FFF7ED
:1039400088FF0620FFF785FF0C20FFF782FF4FF46A
:1039500000412748FCF7DBFF08BD0FB4F0B58BB082
:1039600004460026002702AD12A8019002A8019A81
:10397000119902F057FE00200190C4F18F00C7B2E8
:103980002046FFF766FF11E015F8010BFFF784FFF3
:10399000701CC0B20646B84208DD8F2C06DC00263B
:1039A000C020FFF756FF0120FEF707FD287800280A
:1039B000EAD10BB0F0BC5DF814FB10B50446802CC6
:1039C00004D0C02C07D0FF2C0ED109E009A1802023
:1039D000FFF7C3FF08E007A1C020FFF7BEFF03E029
:1039E0000120FFF716FF00BF00BF10BD001001400F
:1039F000000C0140202020202020202020202020FA
:103A0000202020200000000010B54FF4A060FCF73B
:103A100003FEFEF79DFCFFF72FFAFFF711F9FEF703
:103A20007CFCFEF7F4FDFFF757FF4FF4E130FFF7A2
:103A300003FBDDA18020FFF790FFFFF74BFA80200A
:103A4000FFF7BBFF7D20FDF744F8012813D1DAA171
:103A5000DE48FFF757FCFDF7A1F90120DC490870AB
:103A6000DC490870DC48008820F4004000F5004084
:103A7000D94908800CE0D94BA3F10F02D8A1D34853
:103A8000FFF740FCD448008820F40040D249088069
:103A9000FF20FFF792FF48F69F423121D848FEF7FA
:103AA00028FD48F69F4240F2CF71D648FEF721FD2F
:103AB000D5A1C648FFF726FC10BD08B50025FFF7C5
:103AC000A3FFD7480078D74BC44AA2F10F0100905A
:103AD000032001F00CF8C1490F39A1F85000B1F8EA
:103AE000500002F049FDBD490F39C86401F0A5F846
:103AF00001F079FA002001F03DFC4FF41650FFF779
:103B0000F0FC50E1B5480F3890F8520010F0010F6A
:103B100079D0FFF7CCF830B1032846D0062818D06A
:103B2000092858D12BE0C048007818B90120FFF7C8
:103B30008FF902E00020FFF78BF9A8480F3890F8C2
:103B4000520020F00200801CA4490F3981F8520075
:103B500042E0B548407818B90120FFF765F902E066
:103B60000020FFF761F99D480F3890F8520020F0CF
:103B70000200801C99490F3981F852002CE0AA48B4
:103B8000807818B90120FFF73BF902E00020FFF729
:103B900037F992480F3890F8520020F00200801C4C
:103BA0008E490F3981F8520016E09F48C07818B945
:103BB0000120FFF711F902E00020FFF70DF9874817
:103BC0000F3890F8520020F00200801C83490F3912
:103BD00081F8520000E000BF00BF94480068401B1D
:103BE000B0F5967F35D3914805689148007858B173
:103BF00000218348FDF72CFD00F0C4FA0121804824
:103C0000FDF726FD19E06BE000217D48FDF720FD62
:103C10008848436F88A1026F6C48FFF773FB8048A8
:103C20000078804B6D4AA2F10F010090032000F054
:103C30002FFB01217248FDF70BFD7D48027889A119
:103C40006248FFF75FFB7A48007880F0010078490E
:103C5000087062480F3890F8520010F0010F0BD036
:103C600001F08FFB012807D1002001F01BFB044667
:103C700014B1204600F046F9FFF716FD7D487EA1FD
:103C80000CC88020FFF769FE7D487EA10CC8C020CB
:103C9000FFF763FE4E48007828B17CA14B48FFF740
:103CA00031FB00F0A1F94D480F3890F85200C0F3F5
:103CB0004000002877D05A4800785A4B474AA2F172
:103CC0000F010090032000F0E3FA44490F3991F806
:103CD000521060F3410141480F3880F8521062E001
:103CE0003E480F3890F8520010F0010F2ED16D4869
:103CF0000078C0F3001048B3002001F03BFB002027
:103D000001F038FB35493331A1F1100001F004F81E
:103D1000E0B965A12D48FFF7F5FA30480F3890F863
:103D2000520020F00100401C2C490F3981F852004C
:103D3000012001F01FFB0120FEF7E4FAC820FEF786
:103D40003CFB0020FEF7DEFA38480568554800784D
:103D5000C0F3001010BB002001F00CFB5748008896
:103D60003C280ADB56A11948FFF7CCFA01F03BF9D1
:103D70000020524908801649087000F0BBFF70B956
:103D800056A11248FFF7BEFA4648008820F01000FE
:103D9000103044490880012001F0ECFA03E054A1FE
:103DA0000A48FFF7AFFAADE6436865636B20506FD2
:103DB000776572204F6E00005741524E3A094957BD
:103DC0004447205265626F6F740D0A00003801404D
:103DD000DA000020DB00002030010020EB00002092
:103DE000322E44455649443A2025732C2020202069
:103DF000204150494B45593A2025730D0A000000D7
:103E00000010004000140040332E48617264776156
:103E1000726520696E6974204F4B0D0A0000000026
:103E2000D8000020CC0000203B00002034000020FF
:103E3000D9000020180500200D0AE6ADA3E59CA8D6
:103E4000E4BDBFE794A8E58DABE6989FE695B02565
:103E5000642CE58FAFE8A781E58DABE6989FE695EA
:103E6000B025640073656E64466C6167203A256412
:103E70000D0A0000500000204C41543A20256600F5
:103E8000580000204C4F4E3A202566005741524EB4
:103E90003A094661756C742050726F636573730DD7
:103EA0000A00000040000020546970733A094E6512
:103EB00074576F726B204F4B0D0A000030000020CA
:103EC000546970733A090954696D657220436865D5
:103ED000636B204572720D0A000000004E455420AD
:103EE000446576696365203A4F6B0D0A0000000057
:103EF0004E455420446576696365203A4572726F79
:103F0000720D0A0010B5044621A1204602F0CFFD33
:103F1000B8B121A12448FFF7F5F902202349087020
:103F200023490870234890F85200C0F38200401CD7
:103F3000204991F8521060F384011E4880F8521015
:103F400023E01DA1204602F0B2FD60B11CA116487D
:103F5000FFF7D8F9174890F8520020F01C001549D7
:103F600081F8520011E01BA10F48FFF7CBF911486F
:103F700090F85200C0F38200401C0E4991F8521094
:103F800060F384010B4880F8521000F0C1FE10BDB0
:103F9000434C4F534544000054435020434C4F532F
:103FA00045440D0A0000000000380140DA000020FE
:103FB000DB000020DC00002073756363000000005C
:103FC000546970733A090953656E64204F4B0D0AAA
:103FD00000000000546970733A090953656E64204B
:103FE0004572720D0A00000010B5002001F0C2F900
:103FF0002848007830B1012809D002280FD00328C2
:1040000041D123E024A12948FFF77CF93CE028A115
:104010002648FFF777F900201E49087034E02AA1EE
:104020002248FFF76FF900201A4908702B49A1F1C7
:10403000100001F0E4F82948423890F8520020F0CE
:1040400001002649423981F852001DE024A1174899
:10405000FFF758F900200F4908702748008820F022
:1040600010002549088000F0BEFF002000F049FE46
:104070001A48423890F8520020F00100174942399E
:1040800081F8520000E000BF00BF012001F072F98A
:1040900010BD0000DA0000205741524E3A09464157
:1040A000554C545F4E4F4E450D0A000000380140FC
:1040B0005741524E3A094641554C545F5245424F82
:1040C0004F540D0A000000005741524E3A09464134
:1040D000554C545F4544500D0A0000001E0100205D
:1040E0005741524E3A094641554C545F4E4F444554
:1040F000564943450D0A0000400000202DE9FE4FBF
:1041000004460D4616461F46DDF830804FF0000984
:104110007E4890F8520010F0010F03D001F031F901
:10412000012802D00120BDE8FE8F002001F022F915
:104130007648C06C002101807448B0F8500000B28D
:104140007249C96C3B463246CDE90081029029464E
:10415000204600F04BFC58B16C49C86C02F009FDD8
:104160001FFA80FA6949C86C514601F082F801E0F3
:104170004FF00109002066490870012001F0FAF8AB
:104180004846D0E710B50024604890F8520010F07F
:10419000010F03D001F0F5F8012800D010BD002078
:1041A00001F0E8F801F0BDF80446012C01D0022C22
:1041B00013D102205749087055490870534890F8A8
:1041C0005200C0F38200401C504991F8521060F335
:1041D00084014E4880F852101AE0032C13D10320BA
:1041E0004C4908704A490870484890F85200C0F39A
:1041F0008200401C454991F8521060F38401434805
:1042000080F8521004E000204249087040490870CC
:1042100000F07EFD012001F0ADF800BFBEE7F0B573
:10422000E3B006460C461546802143A802F077FD10
:104230004FF4807103A802F072FD37A00088ADF83A
:104240000C00802143A802F06AFD344803C8CDE980
:104250000001334833A10CC843A802F00FFA43A968
:1042600003A802F0AFFC35A103A802F0ABFC03A841
:1042700002F07FFC07462B4622463149009030462B
:1042800002F0FCF903A9304602F09CFC63B0F0BDDB
:104290002DE9F047ADF5007D04460D4616469A46D9
:1042A000DDF820920027194890F8520010F0010F15
:1042B00003D001F066F8012804D001200DF5007D3F
:1042C000BDE8F087002001F055F8324629466846DF
:1042D000FFF7A5FF684602F04CFC1FFA80F8414644
:1042E000684600F0C6FF224616A11F48FFF70AF8ED
:1042F000002007490870012001F03CF84FF40071DC
:10430000684602F00CFD3846D8E70000DC000020CB
:10431000DB000020DA0000207B00000050000020BD
:104320005800002022475053223A7B226C6F6E22A5
:104330003A25662C226C6174223A25667D000000C5
:1043400088A50008546970733A094F6E654E65740C
:104350005F53656E64446174612D485454505F54DA
:1043600059504525640D0A00003801402DE9FC47ED
:1043700004460E46154699464946304602F0ADFCC5
:1043800005EB450004EB8000007A0D2813D2DFE82E
:1043900000F00713202C3945515D69758593A50000
:1043A00005EB450004EB800040680378F7A249461E
:1043B000304602F079F99CE005EB450004EB800003
:1043C000406890F90030F1A24946304602F06CF99D
:1043D0008FE005EB450004EB800040680378EBA21A
:1043E0004946304602F060F983E005EB450004EBF6
:1043F00080004068B0F90030E4A24946304602F03F
:1044000053F976E005EB450004EB80004068038833
:10441000DEA24946304602F047F96AE005EB450066
:1044200004EB80004068D9A249460368304602F098
:104430003BF95EE005EB450004EB80004068D3A249
:1044400049460368304602F02FF952E005EB45007B
:1044500004EB80004068CEA249460368304602F073
:1044600023F946E005EB450004EB80004068C8A254
:1044700049460368304602F017F93AE005EB45017A
:1044800004EB81014968086805F07CFAC1A2CDE916
:1044900000014946304602F007F92AE005EB4500E5
:1044A00004EB8000406803C8BAA2CDE90001494688
:1044B000304602F0F9F81CE005EB450004EB800003
:1044C00040681030009005EB450004EB8000B2A27C
:1044D00049464368304602F0E7F80AE005EB45003C
:1044E00004EB8000B1A249464368304602F0DCF894
:1044F00000BF00BFBDE8FC872DE9F04FA5B08346A3
:10450000884692461E462E9F00250024A146781E0E
:1045100007B2BBF1010F09D0BBF1030F60D0BBF1B3
:10452000040F7CD0BBF1050F7AD1F4E004F1100048
:10453000B84208DA10229FA1304602F04FFB04F186
:10454000100004B203E0002025B0BDE8F08F33E096
:1045500005EB450008EB8000407A00282AD0602156
:104560000DA802F0DCFBAAB2302301A94046FFF7F8
:10457000FDFE01A8009005EB450058F8203092A2FE
:1045800060210DA802F090F80DA802F0F2FA0FFADF
:1045900080F9381B484501DC0020D5E730194A4630
:1045A0000DA902F01BFB04EB090004B2BC4201DDC3
:1045B0000020C9E7681C05B25545C9DB002220462A
:1045C000611E0CB23254A01CB84206DC301989A11D
:1045D00009880180A01C04B201E00020B4E740E19A
:1045E000601CB84205DA84A000783070601C04B208
:1045F00001E00020A8E735E005EB450008EB80006E
:10460000407A68B360210DA802F089FBAAB230237A
:1046100001A94046FFF7AAFE01A8009001E02EE0A4
:104620001EE105EB450058F8203074A260210DA86A
:1046300002F03AF80DA802F09CFA0FFA80F9381B44
:10464000484501DC00207FE730194A460DA902F0F9
:10465000C5FA04EB090004B2BC4201DD002073E797
:10466000681C05B25545C7DB00222046611E0CB20E
:10467000325465A109783155601C04B2F1E0601C28
:10468000B84205DA5CA000783070601C04B201E02A
:10469000002059E732E005EB450008EB8000407A46
:1046A00050B360210DA802F03AFBAAB2302301A951
:1046B0004046FFF75BFE01A8009005EB450058F867
:1046C000203052A260210DA801F0EEFF0DA802F0EB
:1046D00050FA0FFA80F9381B484501DC002033E717
:1046E00030194A460DA902F079FA04EB090004B228
:1046F000BC4201DD002027E7681C05B25545CADB36
:1047000000222046611E0CB232543FA10978315577
:10471000601C04B2A5E0A01CB84205DA44A00088E1
:104720003080A01C04B201E000200DE794E005EB0E
:10473000450008EB8000407A30B305EB450008EBFC
:104740008000007A0B281FD060210DA802F0E7FA44
:10475000AAB2302301A94046FFF708FE01A8009045
:1047600005EB450058F8203032A260210DA801F079
:104770009BFF0DA802F0FDF90FFA80F9381B801E8F
:1047800048455BDC0020DFE664E0000025640000B3
:10479000256C6400256600007B226C6F6E223A2532
:1047A000732C226C6174223A25737D0022257322BA
:1047B000000000007B226461746173747265616D36
:1047C00073223A5B000000007B226964223A2225B2
:1047D00073222C2264617461706F696E7473223A63
:1047E0005B7B2276616C7565223A25737D5D7D2C3D
:1047F000000000005D7D00007B0000002225732288
:104800003A25732C000000007D0000002225732251
:104810003A7B22323031362D30382D31305431321E
:104820003A33313A3137223A25737D2C00000000AB
:104830002C3B000025732C25733B000030194A46A1
:104840000DA902F0CBF904EB090004B2BC4201DD72
:10485000002079E6681C05B25545FFF668AF00E018
:1048600000BF00BF20466FE62DE9F041A2B08046B0
:104870000E46174600240025B8F1010F09D0B8F103
:10488000030F2CD0B8F1040F54D0B8F1050F7CD130
:104890007CE005F1100005B21CE060210AA802F0DE
:1048A0003EFAA2B2202302A93046FFF75FFD02A81C
:1048B000009004EB440056F82030AFF2F40260217F
:1048C0000AA801F0F1FE0AA802F053F9284405B243
:1048D000601C04B2BC42E0DBA81C05B280E0681C8E
:1048E00005B222E004EB440006EB8000407AD0B130
:1048F00060210AA802F013FAA2B2202302A93046CE
:10490000FFF734FD02A8009004EB440056F8203075
:10491000AFF2181260210AA801F0C6FE0AA802F040
:1049200028F9284405B2601C04B2BC42DADB681CDA
:1049300005B255E0681C05B222E004EB440006EB2A
:104940008000407AD0B160210AA802F0E8F9A2B252
:10495000202302A93046FFF709FD02A8009004EBCE
:10496000440056F82030AFF25C1260210AA801F032
:104970009BFE0AA802F0FDF8284405B2601C04B2B0
:10498000BC42DADB681C05B22AE028E0A81C05B2AC
:1049900022E004EB440006EB8000407AD0B16021B5
:1049A0000AA802F0BCF9A2B2202302A93046FFF700
:1049B000DDFC02A8009004EB440056F82030AFF272
:1049C0008C1260210AA801F06FFE0AA802F0D1F84B
:1049D000284405B2601C04B2BC42DADB00E000BF30
:1049E00000BF284622B0BDE8F08100002DE9FC5F41
:1049F0000646894692469B460D9F3C460025A846A2
:104A00004B465D4ACDE9006A38460E9901F04CFEEE
:104A1000384602F0AEF885B2324658A16048FEF73B
:104A200071FC0E98401B00B27B190090594630462D
:104A30000C9AFFF761FD1FFA80F8B8F1000F02D160
:104A40000020BDE8FC9F08EB05001FFA80F83846FF
:104A500002F08FF8401B85B252A1384602F027F8C9
:104A6000044644B308344FF47A7095FBF0F00A2101
:104A700090FBF1F201FB1200303004F8010B6420CE
:104A800095FBF0F090FBF1F201FB1200303004F8DE
:104A9000010B0A2095FBF0F090FBF1F201FB1200F4
:104AA000303004F8010B0A2095FBF0F100FB1150A7
:104AB000303004F8010B0FFA88F0C2E72DE9F04717
:104AC00004460D4616461F46DDE908892346424640
:104AD00037A1284601F0D2FD4A4641A1304601F0F7
:104AE000CDFD384602F045F880B2BDE8F0872DE9EB
:104AF000F04FABB005460E4617469846DDF8D0B0ED
:104B00000024A146A246A02103A802F008F90EE065
:104B10005A4641462846FFF7A7FE04464C4501DAAF
:104B20004C4600E0A1460AF1010000F0FF0ABAF18C
:104B30000A0FEDDB3346104AA02103A8CDE9005748
:104B400001F0B2FD03A802F014F8204404B220469C
:104B5000E11704EB5171C910A4EBC101C1F11001BF
:104B600021440CB2224621A10D48FEF7CBFB204682
:104B70002BB0BDE8F08F0000F0A5000854697073F9
:104B80003A094F6E654E65745F53656E6444617497
:104B9000612D485454505F5459504525640D0A0006
:104BA000003801402D4C656E6774683A00000000C3
:104BB0006170692E6865636C6F7564732E636F6DC9
:104BC0002F646576696365732F25732F6461746143
:104BD000706F696E74733F747970653D2564000071
:104BE0006170692D6B65793A2573000050524F5FF3
:104BF0004C6F61645F4461746153747265616D4DA3
:104C0000656173757265204D6178204279746573B2
:104C10003A2025640D0A000010B54FF40051FC48FD
:104C2000FBF759FE20B11021FA48FBF770FE03E0B4
:104C30001021F848FBF769FE10BD08B501210420DA
:104C4000FCF76EF810208DF80300ADF8000003208B
:104C50008DF802006946EF48FBF7ACFD04208DF8A3
:104C60000300C002ADF8000003208DF80200694681
:104C7000E748FBF79FFDE8480088C00B03D11021EF
:104C8000E448FBF742FEE448008820F40040E24993
:104C9000088000F0BEFB08BD2DE9F04105460E4638
:104CA00014464FF49677284601F063FF1FFA80F808
:104CB0004146284600F001FC15E000F014FC78B9EC
:104CC0003146D64801F0F3FE50B1D44AD4A1D948B8
:104CD000FEF718FB0CB100F091FB0020BDE8F0815D
:104CE0000220FDF76AFB3800A7F101018FB2E4D181
:104CF0000120F3E710B50122CFA1D0A0FFF7CCFF30
:104D000010BDC549098860F38501C34A1180704709
:104D100010B500F073FB10BD30B58BB004460D46E6
:104D2000BD480078C0F383000B2872D2DFE800F0A2
:104D3000061C5B72889EB4CAE0F8F600C1A1BD48AB
:104D4000FEF7E0FA0122BCA1BEA0FFF7A5FF50B913
:104D5000B1480078C0F38300401CAF49098860F374
:104D60008501AD48018032E1002001900290009061
:104D7000B7A101A801F0D9FEA748407800F00702CA
:104D8000B4A1684601F07AFC694601A801F01AFF57
:104D9000A148407800F00702AFA1A648FEF7B2FA9A
:104DA0000122A5A1B3A0FFF777FF58B99A48007870
:104DB000C0F38300401C9849098860F38501964838
:104DC00001800FE09548001FC07B302808D0934831
:104DD000001FC07B9049497860F302018E48417002
:104DE000FFF796FFF3E0A6A19248FEF78BFA0122A7
:104DF00091A1A8A0FFF750FF50B987480078C0F3F1
:104E00008300401C8449098860F385018248018041
:104E1000DDE0DBE0A2A18748FEF774FA012286A15B
:104E2000A5A0FFF739FF50B97B480078C0F3830095
:104E3000401C7949098860F3850177480180C6E004
:104E4000A0A17C48FEF75EFA01227BA19DA0FFF79E
:104E500023FF50B970480078C0F38300401C6E49AE
:104E6000098860F385016C480180B0E099A1714820
:104E7000FEF748FA012270A196A0FFF70DFF50B986
:104E800065480078C0F38300401C6349098860F3DB
:104E90008501614801809AE093A16648FEF732FAE5
:104EA000012265A190A0FFF7F7FE50B95A4800789B
:104EB000C0F38300401C5849098860F385015648B7
:104EC000018084E08FA15B48FEF71CFA01225AA101
:104ED0008CA0FFF7E1FE50B94F480078C0F3830083
:104EE000401C4D49098860F385014B4801806EE004
:104EF00088A15048FEF706FA01224FA185A0FFF7CE
:104F0000CBFE50B944480078C0F38300401C4249AE
:104F1000098860F385014048018058E02FE0FFE7F1
:104F2000202103A801F0FBFE80A103A801F0FDFDF4
:104F3000214603A801F046FE81A103A801F042FE2C
:104F4000294603A801F03EFE40A103A801F03AFE65
:104F500003AA7CA13748FEF7D5F901227DA103A859
:104F6000FFF79AFE50B92C480078C0F38300401C2C
:104F70002949098860F385012748018027E077A146
:104F80002C48FEF7BFF9012278A174A0FFF784FE38
:104F900058B921480078C0F38300401C1E49098895
:104FA00060F385011C4801800FE0012272A175A009
:104FB000FFF772FE012277A178A0FFF76DFE1420A3
:104FC000FDF7FBF90420FFF79CFE00E000BF00BFE7
:104FD00011480078C0F383000B2802D100200BB0E9
:104FE00030BD0120FBE710B54FF400510848FBF736
:104FF00072FC60B16DA10F48FEF784F910210548DD
:10500000FBF785FC40F6B830FDF7F7F9DEE0E5E0A8
:10501000001001400008014030010020B4060020CB
:105020006E6574494F496E666F2E6275663A092542
:1050300073000000003801404F4B000041540D0A3E
:105040000000000041542B4350494E3F0D0A000020
:10505000302C0000256400005354412054697073C3
:105060003A0941542B435245473F202025640D0AFD
:105070000000000041542B435245473F0D0A0000F9
:1050800053544120546970733A0941542B4353518E
:105090000D0A000041542B4353510D0A000000003B
:1050A00053544120546970733A0941542B43475279
:1050B00045473F0D0A00000041542B4347524547E6
:1050C0003F0D0A0041542B434950484541443D316E
:1050D0000D0A000041542B4347434C4153533D229A
:1050E00042220D0A0000000041542B434744434F25
:1050F0004E543D312C224950222C22434D4E4554D2
:10510000220D0A0041542B43474154543D310D0AAE
:105110000000000041542B434950435347503D3158
:105120002C22434D4E4554220D0A000041542B437E
:10513000495053544152543D22544350222C220092
:10514000222C000053544120546970733A0925738E
:1051500000000000434F4E4E4543540041542B4342
:1051600049505354415455530D0A0000434F4E4E7D
:10517000454354204F4B0000434C4F5345204F4B69
:105180000000000041542B434950434C4F53453DD0
:10519000310D0A0053485554204F4B0041542B43C6
:1051A0004950534855540D0A000000004F46460D23
:1051B0000A00000075A17748FEF7A4F81021764890
:1051C000FBF7A3FB4FF4FA70FDF7F7F84FF400512B
:1051D0007248FBF780FB0028ECD10FE04FF47A70A7
:1051E000FDF7EBF810216C48FBF78FFB00BF4FF485
:1051F00000516A48FBF76FFB0028F8D110BD70B56D
:1052000088B004460D4600260122AFF29401AFF2A9
:105210008C00FFF741FD1420FDF7CFF820216846F0
:1052200001F07DFDAFF2FC01684601F07EFC2146F5
:10523000684601F0C7FCAFF2F801684601F0C2FC15
:105240002946684601F0BEFCAFF20021684601F035
:10525000B9FC6A46AFF214114E48FEF753F801222A
:10526000AFF2F8016846FFF717FD0646304608B072
:1052700070BD30B589B005460C460A20FDF79DF893
:1052800000F0BCF8224646A101A801F0F7F901227E
:1052900047A101A8FFF700FD2146284600F00DF9BF
:1052A00009B030BD2DE9FC4106460027002500BFAE
:1052B00000F019F900282AD13EA1404801F0F7FB7F
:1052C000044624B33EA1204601F0F1FB0446641CD1
:1052D00006E014F8012B2846691C8DB20DF8002059
:1052E00020783A28F5D1684601F09CFB87B2641C0F
:1052F000002505E014F8011B30484155681C85B2B3
:10530000BD42F7DB2F4887802C48BDE8FC81022096
:10531000FDF753F83000A6F101018EB2C8D100BFED
:10532000F3E770B50025C82400F068F80E21AFF24D
:10533000D41000F0C2F810E000F0D5F850B922A166
:105340001E4801F0B4FB20B1012522A11148FDF750
:10535000D9FF06E00220FDF730F8601EC0B204005D
:10536000EAD100BF24B9012520A10A48FDF7CAFFF0
:10537000284670BD1349098860F3CE21114A118077
:10538000704710480088C0F3C32070474F4E0D0A85
:1053900000000000003801400008014000100140FA
:1053A00041542B43495053454E443D25640D0A005A
:1053B0003E0000004950442C00000000B4060020CC
:1053C0002C0000003001002054435020434C4F5328
:1053D0004544000053494D38303043205443502059
:1053E000434C4F5345440D0A000000004368656379
:1053F0006B2054696D654F75740D0A0010B500205F
:10540000534908804FF4A0715148001D01F065FC1C
:1054100010BD00B587B001210420FBF781FC0121FC
:105420004804FBF78AFC18208DF81B000420ADF817
:10543000180003208DF81A0006A94648FBF7BAF9B0
:1054400004208DF81B000820ADF8180003208DF80B
:105450001A0006A93F48FBF7ADF94FF4E13002907E
:105460000020ADF814000C20ADF812000020ADF8BB
:105470001000ADF80E00ADF80C0002A93648FCF79C
:1054800008FC01213448FCF790FC012240F2255130
:105490003148FCF796FC26208DF8040001208DF899
:1054A000070000208DF805008DF8060001A8FBF725
:1054B000B8F8FFF7A3FF07B000BD70B504460D466E
:1054C00000260DE014F8011B2348FCF7DBFC00BFAD
:1054D00040212148FCF744FD0028F9D0701C86B219
:1054E000AE42EFDB70BD1A48008808B90120704752
:1054F0001748008816494988884203D1002014497A
:105500000880F4E712480088114948800120EEE73E
:1055100010B540F225511048FCF738FDB8B10C48E1
:105520000088B0F5A07F02D30020094908800A480E
:10553000001D0088C1B2064802880088401C044B48
:105540001880181D815420210348FCF716FD10BD5A
:10555000B006002000080140004400402948704780
:105560000FB430B5ADF2044DFFF7F8FF0568ADB1EB
:105570000DF21440CDF8000440F2FF316846DDF82A
:105580000034DDF8102401F05FF804460020CDF867
:105590000004002C02DD21466846A8470DF2044DA8
:1055A00030BC5DF814FB70B506460C46FFF7D6FF1D
:1055B00005681DB114B121463046A84770BD0FB42F
:1055C00030B5ADF2044DFFF7C9FF4568ADB10DF23E
:1055D0001440CDF8000440F2FF316846DDF8003495
:1055E000DDF8102401F030F804460020CDF8000466
:1055F000002C02DD21466846A8470DF2044D30BC60
:105600005DF814FB38010020FEB506460D46144631
:105610000027062D06D0082D16D0092D15D00A2DED
:1056200028D113E004F11400011F0B1FFEA2CDE9E5
:1056300000102946304600F086FE032801D10120E3
:1056400000E0002007461AE000BF00BF04F1180088
:10565000011F0A1F131FCDE900210290F5A2294660
:10566000304600F070FE042801D1012000E0002047
:10567000074604E0F3A0FFF7A2FF002700BF00BF2A
:105680000FB10020FEBD4FF0FF30FBE770B50546BF
:105690000C46052C01DA002070BDF3480522016894
:1056A000284601F016FA08B90120F5E7EE48052270
:1056B0004168284601F00DFA08B90220ECE7EA48F3
:1056C00005228168284601F004FA08B90420E3E7BE
:1056D000E5480522C168284601F0FBF908B9082011
:1056E000DAE7E14805220169284601F0F2F908B934
:1056F0001020D1E70020CFE72DE9F04704460F4600
:10570000154604EB07080026B146701E286029E004
:105710002078242802D10EB1002425E020782A2800
:105720001AD1601D404516D8E0780D2813D1207994
:105730000A2810D110220221601C00F09DFD286073
:10574000601DA8EB00003E1A2868484503D04FF0C2
:10575000FF302860002407E016B1207880EA0909AC
:10576000641C761C4445D3D300BF2868002801DAA6
:1057700004B100263046BDE8F087F0B5CDB005464F
:105780000E4614468021204601F0C9FA31462846CB
:10579000FFF709FF04F1780004F1700104F16802D9
:1057A00004F16003CDE90932CDE90B10203820392E
:1057B000203A203BCDE90532CDE907101C38011F06
:1057C000183A183BCDE90132CDE903101C380DAB76
:1057D000A6A231460090284600F0B5FD0E2805D05F
:1057E000AFA0FFF7ECFE00204DB0F0BD0DA801F01A
:1057F000C0F90746224639460DA8FFF705FF20B13C
:10580000ACA0FFF7DCFE0020EEE70120ECE770B56E
:1058100090B005460E4614465021204601F07FFA0E
:1058200031462846FFF7BFFE04F1480104F140026B
:1058300004F13803181FCDE90D320F910C90011FB0
:105840000A1F131F1038CDE909320B910890011F70
:105850000A1F131F1038CDE9053207910490011F6C
:105860000838021F231DCDE90032CDE9020123468D
:1058700096A23146284600F066FD112805D0A2A068
:10588000FFF79DFE002010B070BD0120FBE72DE961
:10589000F04192B00746884614465C21204601F04C
:1058A0003EFA41463846FFF77EFE04F158010A1FD2
:1058B000131F04F14800CDE90F3211910E90011F22
:1058C0000A1F131F1438CDE90B320D910A90011FE6
:1058D0000A1F131F1438CDE9073209910690011FE2
:1058E0000A1F0C381C3BCDE90230CDE904210C38ED
:1058F000211D2346894ACDE900104146384600F073
:1059000022FD06466068401E8500281DA168814270
:1059100002DAA068401B00E004200546032000EBEB
:105920008505AE4201DB132E06DD7DA0FFF747FEA5
:10593000002012B0BDE8F0810120FAE72DE9F04126
:10594000CEB006460F4614466021204601F0E7F926
:1059500039463046FFF727FE04F15900411E04F195
:105960005002CDE90942CDE90B10201D011D083A76
:1059700004F14003CDE90532CDE907103430283178
:10598000203A203BCDE90132CDE903101C380EABA3
:1059900068A239460090304600F0D5FC05460D2D32
:1059A00008D00E2D06D070A0FFF709FE00204EB0E3
:1059B000BDE8F0810EA801F0DCF8804622464146A1
:1059C0000EA8FFF721FE20B16CA0FFF7F8FD002024
:1059D000EDE720685A2802DA2068643020606068A9
:1059E000401E60600120E2E770B588B005460E46B3
:1059F00014464021204601F092F931462846FFF72F
:105A0000D2FD04F1380004F1300104F1280204F160
:105A10002003CDE90332CDE9051020382039203AA2
:105A20002346CDE90021B5E02532642532642532D4
:105A3000640000002532642532642532642E25641A
:105A4000000000005061727365206F662074696DFC
:105A500065206572726F722028666F726D617420A6
:105A60006572726F7229210044010020244750475B
:105A700047412C25732C25662C25432C25662C2587
:105A8000432C25642C25642C25662C25662C254367
:105A90002C25662C25432C25662C25642A00000025
:105AA0004750474741207061727365206572726F7D
:105AB0007221000047504747412074696D6520708E
:105AC00061727365206572726F72210024475047BE
:105AD00053412C25432C25642C25642C25642C252E
